:020000040800F2
:1000000000280020F9100008891000088F1000084F
:10001000951000089B100008A110000800000000C7
:10002000000000000000000000000000A710000811
:10003000B310000800000000BF100008CB1000083B
:100040004111000841110008411100084111000848
:100050004111000841110008411100084111000838
:100060004111000841110008411100084111000828
:100070004111000841110008411100084111000818
:100080004111000841110008411100084111000808
:1000900041110008411100084111000841110008F8
:1000A00041110008411100084111000841110008E8
:1000B000D91000084111000800000000411100089B
:1000C000411100080000000000000000411100087C
:1000D000000000004111000841110008000000006C
:1000E0004111000841110008411100080000000002
:1000F0000000000000000000000000000000000000
:0C01000000000000000000005FF808F1A3
:10010C0010B5054C237833B9044B13B10448AFF345
:10011C0000800123237010BD3C0000200000000073
:10012C005C27000808B5034B1BB103490348AFF328
:10013C00008008BD00000000400000205C27000883
:10014C0080B582B000AF78600A4B1B687A689A421F
:10015C000CDA7B68002B09DB786800F00FF8064A94
:10016C007B6852F82330184600F07EF800BF083741
:10017C00BD4680BD742700080400002080B582B005
:10018C0000AF78607B68032B66D801A252F823F08D
:10019C00AD010008DB010008090200083702000865
:1001AC00002240212F4801F0B1FA012280212D4874
:1001BC0001F0ACFA01224FF480712A4801F0A6FA42
:1001CC0001224FF40071274801F0A0FA45E001220A
:1001DC004021244801F09AFA00228021214801F0A4
:1001EC0095FA01224FF480711E4801F08FFA01221A
:1001FC004FF400711B4801F089FA2EE001224021D6
:10020C00184801F083FA01228021164801F07EFA89
:10021C0000224FF48071134801F078FA01224FF458
:10022C000071104801F072FA17E0012240210D48CC
:10023C0001F06CFA012280210A4801F067FA0122D0
:10024C004FF48071074801F061FA00224FF40071FD
:10025C00044801F05BFA00E000BF00BF0837BD4660
:10026C0080BD00BF0008014080B582B000AF78604F
:10027C007B68092B00F2808101A252F823F000BFA9
:10028C00B5020008FD020008450300088D030008B4
:10029C00D50300081D04000865040008AD0400081F
:1002AC00F50400083D05000800220121B54801F0C5
:1002BC002DFA00220221B34801F028FA0022042171
:1002CC00B04801F023FA00220821AE4801F01EFAD2
:1002DC0000221021AB4801F019FA00222021A94874
:1002EC0001F014FA01224021A64801F00FFA44E172
:1002FC0001220121A34801F009FA00220221A148A0
:10030C0001F004FA002204219E4801F0FFF90122B9
:10031C0008219C4801F0FAF901221021994801F0BA
:10032C00F5F901222021974801F0F0F90122402132
:10033C00944801F0EBF920E100220121914801F0F1
:10034C00E5F9002202218F4801F0E0F90122042195
:10035C008C4801F0DBF9002208218A4801F0D6F91B
:10036C0000221021874801F0D1F901222021854873
:10037C0001F0CCF900224021824801F0C7F9FCE0E1
:10038C00002201217F4801F0C1F9002202217D48A1
:10039C0001F0BCF9002204217A4801F0B7F90022DF
:1003AC000821784801F0B2F901221021754801F0BA
:1003BC00ADF901222021734801F0A8F90022402157
:1003CC00704801F0A3F9D8E0012201216D4801F039
:1003DC009DF9002202216B4801F098F900220421BA
:1003EC00684801F093F901220821664801F08EF962
:1003FC0001221021634801F089F900222021614873
:10040C0001F084F9002240215E4801F07FF9B4E04C
:10041C00002201215B4801F079F90122022159489F
:10042C0001F074F900220421564801F06FF9002202
:10043C000821544801F06AF901221021514801F0B9
:10044C0065F9002220214F4801F060F9002240217B
:10045C004C4801F05BF990E000220121494801F081
:10046C0055F901220221474801F050F900220421DC
:10047C00444801F04BF900220821424801F046F9AA
:10048C00002210213F4801F041F9002220213D4873
:10049C0001F03CF9002240213A4801F037F96CE0B8
:1004AC0000220121374801F031F9002202213548A0
:1004BC0001F02CF900220421324801F027F9012225
:1004CC000821304801F022F9012210212D4801F0B9
:1004DC001DF9012220212B4801F018F9012240219D
:1004EC00284801F013F948E000220121254801F0C9
:1004FC000DF900220221234801F008F90022042101
:10050C00204801F003F9002208211E4801F0FEF8F2
:10051C00002210211B4801F0F9F800222021194873
:10052C0001F0F4F800224021164801F0EFF824E025
:10053C0000220121134801F0E9F8002202211148A0
:10054C0001F0E4F8002204210E4801F0DFF800224B
:10055C0008210C4801F0DAF801221021094801F0B9
:10056C00D5F800222021074801F0D0F800224021C4
:10057C00044801F0CBF800E000BF00BF0837BD46CF
:10058C0080BD00BF000C014080B400AF1A4B1B684B
:10059C001A4A82FB03129210DB17D31A184A136003
:1005AC00154B1968154B83FB01239A10CB17D21AE4
:1005BC0013469B0013445B00CA1A114B5A60114B33
:1005CC001B680E4A82FB03129210DB17D31A0C4ADB
:1005DC0093600C4B1968094B83FB01239A10CB17C2
:1005EC00D21A13469B0013445B00CA1A044BDA6000
:1005FC0000BFBD4680BC7047180000206766666669
:10060C00040000201C00002080B582B000AF786090
:10061C007B68072B00F28C8101A252F823F000BFFB
:10062C004D060008AB06000809070008670700081C
:10063C00C50700082308000881080008DF08000827
:10064C0001220421BD4801F061F800220821BB48B9
:10065C0001F05CF800224FF48061B84801F056F8C4
:10066C0000224FF40061B54801F050F800224FF41D
:10067C008051B24801F04AF800224FF40051AF48C3
:10068C0001F044F800224FF48041AC4801F03EF8F0
:10069C0000224FF40041A94801F038F849E100224A
:1006AC000421A64801F032F801220821A34801F0E8
:1006BC002DF800224FF48061A04801F027F80022A9
:1006CC004FF400619D4801F021F800224FF4805155
:1006DC009A4801F01BF800224FF40051974801F0A2
:1006EC0015F800224FF48041944801F00FF80022D5
:1006FC004FF40041914801F009F81AE1002204215D
:10070C008E4801F003F8002208218C4800F0FEFF0F
:10071C0001224FF48061894800F0F8FF00224FF469
:10072C000061864800F0F2FF00224FF480518348AC
:10073C0000F0ECFF00224FF40051804800F0E6FF7F
:10074C0000224FF480417D4800F0E0FF00224FF47E
:10075C0000417A4800F0DAFFEBE0002204217748F0
:10076C0000F0D4FF00220821744800F0CFFF0022D3
:10077C004FF48061714800F0C9FF01224FF4006111
:10078C006E4800F0C3FF00224FF480516B4800F01C
:10079C00BDFF00224FF40051684800F0B7FF002263
:1007AC004FF48041654800F0B1FF00224FF4004146
:1007BC00624800F0ABFFBCE0002204215F4800F06F
:1007CC00A5FF002208215D4800F0A0FF00224FF495
:1007DC0080615A4800F09AFF00224FF4006157489C
:1007EC0000F094FF01224FF48051544800F08EFF2A
:1007FC0000224FF40051514800F088FF00224FF4C2
:10080C0080414E4800F082FF00224FF400414B48DB
:10081C0000F07CFF8DE000220421484800F076FFB8
:10082C0000220821454800F071FF00224FF480613E
:10083C00424800F06BFF00224FF400613F4800F08B
:10084C0065FF00224FF480513C4800F05FFF01220D
:10085C004FF40051394800F059FF00224FF4804109
:10086C00364800F053FF00224FF40041334800F0AB
:10087C004DFF5EE000220421304800F047FF0022CB
:10088C0008212E4800F042FF00224FF480612B48D3
:10089C0000F03CFF00224FF40061284800F036FFC6
:1008AC0000224FF48051254800F030FF00224FF415
:1008BC000051224800F02AFF01224FF480411F48CA
:1008CC0000F024FF00224FF400411C4800F01EFFF2
:1008DC002FE000220421194800F018FF0022082103
:1008EC00164800F013FF00224FF48061134800F00B
:1008FC000DFF00224FF40061104800F007FF0022AA
:10090C004FF480510D4800F001FF00224FF40051CC
:10091C000A4800F0FBFE00224FF48041074800F02B
:10092C00F5FE01224FF40041044800F0EFFE00E018
:10093C0000BF00BF0837BD4680BD00BF00080140A6
:10094C0080B582B000AF78607B68002B75DB7B686C
:10095C00072B72DC3B4A7B6813441B78DB09DBB248
:10096C001A464FF48071384800F0D0FE354A7B6847
:10097C0013441B789B09DBB203F00103DBB21A466C
:10098C004FF40071304800F0C1FE2E4A7B681344CE
:10099C001B785B09DBB203F00103DBB21A464FF4A0
:1009AC008061294800F0B2FE264A7B6813441B780C
:1009BC001B09DBB203F00103DBB21A464FF40061F2
:1009CC00214800F0A3FE1F4A7B6813441B78DB0808
:1009DC00DBB203F00103DBB21A464FF480511A4824
:1009EC0000F094FE174A7B6813441B789B08DBB21B
:1009FC0003F00103DBB21A464FF40051124800F029
:100A0C0085FE104A7B6813441B785B08DBB203F04D
:100A1C000103DBB21A464FF480410B4800F076FE1E
:100A2C00084A7B6813441B7803F00103DBB21A46B7
:100A3C004FF40041044800F069FE00BF0837BD4682
:100A4C0080BD00BF24000020000C014080B500AF29
:100A5C0000F072FB00F0F8F800F07EF900F030F9CD
:100A6C006D4801F0B1FA4FF4FA7000F0E1F94FF46F
:100A7C007A7000F0F7F94FF4FA6000F00DFA4FF4C9
:100A8C00FA7000F023FA654BFA221A60644B1B686B
:100A9C00012B27D1634B1B680133624A13604FF45F
:100AAC007A7000F0DFF95F4B1B683B2B07DD5D4B69
:100ABC0000221A605C4B1B6801335B4A13605A4B73
:100ACC001B683B2B07DD584B00221A60574B1B68E9
:100ADC000133564A1360554B1B68172B02DD534BE1
:100AEC0000221A60FFF750FD514B1B68042B5ED897
:100AFC0001A252F823F000BF2B0B00084F0B00088B
:100B0C00730B0008970B0008190B0008484B0022C8
:100B1C001A60424B1B68184600F08AF950E0444BAF
:100B2C001B681846FFF70CFB424B1B68012B40D18E
:100B3C003F4B01221A60394B1B68184600F078F9BC
:100B4C0037E03B4B1B681846FFF7FAFA394B1B682A
:100B5C00012B30D1364B02221A60304B1B681846E1
:100B6C0000F066F927E0324B1B681846FFF7E8FAED
:100B7C00304B1B68012B20D12D4B03221A60274BC5
:100B8C001B68184600F054F917E0294B1B681846EF
:100B9C00FFF7D6FA274B1B68012B10D1244B0022F0
:100BAC001A601E4B1B68184600F042F907E000BFA4
:100BBC0006E000BF04E000BF02E000BF00E000BFA1
:100BCC001D4B1B68012B07D14FF4FA6000F064F940
:100BDC0010211A4800F0B2FD194B1B68012B7FF451
:100BEC0055AF4FF4FA7000F071F9164B1B680822E0
:100BFC00934202DB134B00221A60124B1B681846FF
:100C0C00FFF702FD0F4B1B685A1C0E490A60184671
:100C1C00FFF796FE3AE700BF7C000020140000208E
:100C2C0068000020200000201C000020180000207C
:100C3C00000000206000002070000020000801402F
:100C4C00780000205800002080B590B000AF07F16C
:100C5C00180328220021184601F072FD3B1D0022CA
:100C6C001A605A609A60DA601A610223BB61012330
:100C7C00BB621023FB6200237B6307F11803184649
:100C8C0000F076FD0346002B01D000F0CBF80F23CB
:100C9C007B600023BB600023FB6000233B610023CF
:100CAC007B613B1D0021184600F0E2FF0346002B40
:100CBC0001D000F0B7F800BF4037BD4680BD000042
:100CCC0080B586B000AF07F1080300221A605A60A5
:100CDC009A60DA603B4600221A605A601D4B4FF056
:100CEC0080421A601B4B41F63F725A60194B00222E
:100CFC009A60184B0922DA60164B00221A61154BC8
:100D0C0000229A61134801F00FF90346002B01D021
:100D1C0000F088F84FF48053BB6007F108031946C4
:100D2C000C4801F0A5FA0346002B01D000F07AF82C
:100D3C0000233B6000237B603B461946054801F0CD
:100D4C0071FC0346002B01D000F06CF800BF183783
:100D5C00BD4680BD7C00002080B586B000AF07F199
:100D6C00080300221A605A609A60DA60224B9B6971
:100D7C00214A43F0040393611F4B9B6903F0040366
:100D8C007B607B681C4B9B691B4A43F00803936197
:100D9C00194B9B6903F008033B603B6801224FF63B
:100DAC00FC71164800F0B2FC01224FF67F7114481A
:100DBC0000F0ACFC4FF6FC73BB600123FB6000231E
:100DCC003B6102237B6107F1080319460B4800F0D5
:100DDC0023FB4FF67F73BB600123FB6000233B6159
:100DEC0002237B6107F108031946054800F014FB48
:100DFC0000BF1837BD4680BD0010024000080140FE
:100E0C00000C014080B582B000AF786000F078F83B
:100E1C0000F090F800F0A8F800F0C0F800BF083718
:100E2C00BD4680BD80B400AF72B600BFFEE70000C7
:100E3C0080B483B000AF7860074B1B687A6892FB74
:100E4C00F3F3064A1360064B00221A6000BF0C37FE
:100E5C00BD4680BC704700BF2C0000205C00002009
:100E6C006000002080B483B000AF7860074B1B6833
:100E7C007A6892FBF3F3064A1360064B00221A6061
:100E8C0000BF0C37BD4680BC704700BF2C00002053
:100E9C00640000206800002080B483B000AF78604C
:100EAC00074B1B687A6892FBF3F3064A1360064BF8
:100EBC0000221A6000BF0C37BD4680BC704700BFD3
:100ECC002C0000206C0000207000002080B483B047
:100EDC0000AF7860074B1B687A6892FBF3F3064A05
:100EEC001360064B00221A6000BF0C37BD4680BC55
:100EFC00704700BF2C0000207400002078000020F8
:100F0C0080B400AF094B1B68002B0BDD074B1B6833
:100F1C00013B064A1360054B1B68002B02DC044B9B
:100F2C0001221A6000BFBD4680BC70475C000020E7
:100F3C006000002080B400AF094B1B68002B0BDD58
:100F4C00074B1B68013B064A1360054B1B68002BC3
:100F5C0002DC044B01221A6000BFBD4680BC704706
:100F6C00640000206800002080B400AF094B1B68AF
:100F7C00002B0BDD074B1B68013B064A1360054B2E
:100F8C001B68002B02DC044B01221A6000BFBD461B
:100F9C0080BC70476C0000207000002080B400AF53
:100FAC00094B1B68002B0BDD074B1B68013B064AEA
:100FBC001360054B1B68002B02DC044B01221A60EA
:100FCC0000BFBD4680BC7047740000207800002034
:100FDC0080B485B000AF154B9B69144A43F00103F4
:100FEC009361124B9B6903F00103BB60BB680F4B11
:100FFC00DB690E4A43F08053D3610C4BDB6903F081
:10100C0080537B607B680A4B5B68FB60FB6823F05A
:10101C00E063FB60FB6843F08063FB60044AFB68A1
:10102C00536000BF1437BD4680BC704700100240AF
:10103C000000014080B584B000AF78607B681B680D
:10104C00B3F1804F13D10C4BDB690B4A43F0010316
:10105C00D361094BDB6903F00103FB60FB680022E1
:10106C0000211C2000F0A1F91C2000F0BAF900BFEF
:10107C001037BD4680BD00BF0010024080B400AFE9
:10108C00FEE780B400AFFEE780B400AFFEE780B4AB
:10109C0000AFFEE780B400AFFEE780B400AF00BF46
:1010AC00BD4680BC704780B400AF00BFBD4680BC5D
:1010BC00704780B400AF00BFBD4680BC704780B5A0
:1010CC0000AF00F07FF800BF80BD000080B500AF1E
:1010DC00024800F0C5FF00BF80BD00BF7C000020AF
:1010EC0080B400AF00BFBD4680BC7047FFF7F8FF6F
:1010FC000B480C490C4A002302E0D458C45004336A
:10110C00C4188C42F9D3094A094C002301E013603E
:10111C000432A242FBD301F0EFFAFFF797FC7047C1
:10112C00000000203C000020A42700083C00002008
:10113C00C8000020FEE7000080B500AF084B1B681C
:10114C00074A43F010031360032000F023F90F202B
:10115C0000F008F8FFF73CFF0023184680BD00BFE5
:10116C000020024080B582B000AF7860124B1A6844
:10117C00124B1B7819464FF47A73B3FBF1F3B2FBA5
:10118C00F3F3184600F03BF90346002B01D0012382
:10119C000EE07B680F2B0AD8002279684FF0FF30E5
:1011AC0000F003F9064A7B681360002300E001237A
:1011BC0018460837BD4680BD30000020380000209E
:1011CC003400002080B400AF054B1B781A46054B49
:1011DC001B681344034A136000BFBD4680BC7047B4
:1011EC0038000020C400002080B400AF024B1B6804
:1011FC001846BD4680BC7047C400002080B485B042
:10120C0000AF78607B6803F00703FB600C4BDB6876
:10121C00BB60BA684FF6FF031340BB60FB681A0251
:10122C00BB68134343F0BF6343F40033BB60044A11
:10123C00BB68D36000BF1437BD4680BC704700BF8D
:10124C0000ED00E080B400AF044BDB681B0A03F038
:10125C0007031846BD4680BC704700BF00ED00E098
:10126C0080B483B000AF0346FB7197F90730002BB5
:10127C000BDBFB7903F01F02064997F907305B097A
:10128C00012000FA02F241F8232000BF0C37BD46C2
:10129C0080BC704700E100E080B483B000AF03462F
:1012AC003960FB7197F90730002B0ADB3B68DAB227
:1012BC000C4997F907301201D2B20B4483F8002382
:1012CC000AE03B68DAB20849FB7903F00F03043BF0
:1012DC001201D2B20B441A7600BF0C37BD4680BC4B
:1012EC00704700BF00E100E000ED00E080B489B081
:1012FC0000AFF860B9607A60FB6803F00703FB612C
:10130C00FB69C3F10703042B28BF0423BB61FB69F2
:10131C000433062B02D9FB69033B00E000237B61FD
:10132C004FF0FF32BB6902FA03F3DA43BB681A4091
:10133C007B699A404FF0FF317B6901FA03F3D94383
:10134C007B680B40134318462437BD4680BC70475E
:10135C0080B582B000AF78607B68013BB3F1807FD1
:10136C0001D301230FE00A4A7B68013B53600F2134
:10137C004FF0FF30FFF790FF054B00229A60044BB3
:10138C0007221A60002318460837BD4680BD00BFEF
:10139C0010E000E080B582B000AF78607868FFF7AD
:1013AC002DFF00BF0837BD4680BD80B586B000AFAD
:1013BC000346B9607A60FB7300237B61FFF742FF41
:1013CC0078617A68B9687869FFF790FF024697F9F7
:1013DC000F3011461846FFF75FFF00BF1837BD46A8
:1013EC0080BD80B582B000AF0346FB7197F9073022
:1013FC001846FFF735FF00BF0837BD4680BD80B5E6
:10140C0082B000AF78607868FFF7A2FF03461846F9
:10141C000837BD4680BD000080B48BB000AF78604B
:10142C00396000237B6200233B6248E101227B6A26
:10143C0002FA03F3FB613B681B68FA691340BB615A
:10144C00BA69FB699A4240F037813B685B68A34AF2
:10145C0093425ED0A14A934275D8A14A934258D088
:10146C009F4A93426FD89F4A934252D09D4A9342CF
:10147C0069D89D4A93424CD09B4A934263D89B4A6D
:10148C00934246D0994A93425DD8122B2AD8122BFC
:10149C0059D801A252F823F01F150008F9140008BE
:1014AC000B1500084D1500085315000853150008BE
:1014BC005315000853150008531500085315000860
:1014CC005315000853150008531500085315000850
:1014DC005315000853150008531500080115000892
:1014EC0015150008824A934213D02CE03B68DB6848
:1014FC003B6229E03B68DB6804333B6224E03B68D9
:10150C00DB6808333B621FE03B68DB680C333B62F3
:10151C001AE03B689B68002B02D104233B6213E06A
:10152C003B689B68012B05D108233B627B68FA69F9
:10153C001A6109E008233B627B68FA695A6103E08F
:10154C0000233B6200E000BFBB69FF2B01D87B6826
:10155C0001E07B6804337B61BB69FF2B02D87B6A9B
:10156C009B0002E07B6A083B9B003B617B691A682D
:10157C000F213B6901FA03F3DB431A40396A3B69DB
:10158C0001FA03F31A437B691A603B685B6803F04A
:10159C008053002B00F09080564B9B69554A43F0CA
:1015AC0001039361534B9B6903F00103BB60BB6860
:1015BC00514A7B6A9B08023352F82330FB607B6AEA
:1015CC0003F003039B000F2202FA03F3DB43FA68D8
:1015DC001340FB607B68494A93420DD07B68484AB4
:1015EC00934207D07B68474A934201D1022304E01F
:1015FC00032302E0012300E000237A6A02F00302D5
:10160C0092009340FA681343FB603B497B6A9B084A
:10161C000233FA6841F823203B685B6803F48013BB
:10162C00002B06D0384B9A683749BB6913438B6043
:10163C0006E0354B9A68BB69DB43334913408B603A
:10164C003B685B6803F40013002B06D02E4BDA6862
:10165C002D49BB691343CB6006E02B4BDA68BB69A1
:10166C00DB4329491340CB603B685B6803F40033D0
:10167C00002B06D0244B5A682349BB6913434B609B
:10168C0006E0214B5A68BB69DB431F4913404B6092
:10169C003B685B6803F48033002B06D01A4B1A6846
:1016AC001949BB6913430B6006E0174B1A68BB69F9
:1016BC00DB43154913400B607B6A01337B623B684B
:1016CC001A687B6A22FA03F3002B7FF4AFAE00BFDB
:1016DC0000BF2C37BD4680BC704700BF00003210E5
:1016EC000000311000002210000021100000121028
:1016FC0000001110001002400000014000080140E1
:10170C00000C0140001001400004014080B483B083
:10171C0000AF78600B467B8013467B707B78002B88
:10172C0003D07A887B681A6103E07B881A047B6893
:10173C001A6100BF0C37BD4680BC704780B485B0C1
:10174C0000AF78600B467B807B68DB68FB607A8837
:10175C00FB6813401A04FB68D9437B880B401A437F
:10176C007B681A6100BF1437BD4680BC704700000F
:10177C0080B586B000AF78607B68002B01D1012367
:10178C006CE27B681B6803F00103002B00F0878080
:10179C00924B5B6803F00C03042B0CD08F4B5B68F3
:1017AC0003F00C03082B12D18C4B5B6803F48033D1
:1017BC00B3F5803F0BD1894B1B6803F40033002B2E
:1017CC006CD07B685B68002B68D1012346E27B6898
:1017DC005B68B3F5803F06D1804B1B687F4A43F4AE
:1017EC00803313602EE07B685B68002B0CD17B4B45
:1017FC001B687A4A23F480331360784B1B68774A52
:10180C0023F4802313601DE07B685B68B3F5A02F85
:10181C000CD1724B1B68714A43F4802313606F4BDD
:10182C001B686E4A43F4803313600BE06B4B1B68F0
:10183C006A4A23F480331360684B1B68674A23F4AD
:10184C00802313607B685B68002B13D0FFF7CCFC04
:10185C00386108E0FFF7C8FC02463B69D31A642BD9
:10186C0001D90323FAE15D4B1B6803F40033002B11
:10187C00F0D014E0FFF7B8FC386108E0FFF7B4FCD7
:10188C0002463B69D31A642B01D90323E6E1534B7F
:10189C001B6803F40033002BF0D100E000BF7B6821
:1018AC001B6803F00203002B63D04C4B5B6803F006
:1018BC000C03002B0BD0494B5B6803F00C03082B7B
:1018CC001CD1464B5B6803F48033002B16D1434B81
:1018DC001B6803F00203002B05D07B681B69012BEE
:1018EC0001D00123BAE13D4B1B6823F0F8027B6861
:1018FC005B69DB00394913430B603AE07B681B6979
:10190C00002B20D0364B01221A60FFF76DFC38619A
:10191C0008E0FFF769FC02463B69D31A022B01D998
:10192C0003239BE12D4B1B6803F00203002BF0D02B
:10193C002A4B1B6823F0F8027B685B69DB002749A4
:10194C0013430B6015E0264B00221A60FFF74CFC8A
:10195C00386108E0FFF748FC02463B69D31A022BBA
:10196C0001D903237AE11D4B1B6803F00203002B02
:10197C00F0D17B681B6803F00803002B3AD07B681E
:10198C009B69002B19D0174B01221A60FFF72CFC16
:10199C00386108E0FFF728FC02463B69D31A022B9A
:1019AC0001D903235AE10D4B5B6A03F00203002BB0
:1019BC00F0D0012000F09AFA1CE00A4B00221A60C9
:1019CC00FFF712FC38610FE0FFF70EFC02463B6993
:1019DC00D31A022B08D9032340E100BF00100240A8
:1019EC0000004242800442429E4B5B6A03F00203B9
:1019FC00002BE9D17B681B6803F00403002B00F07B
:101A0C00A6800023FB75974BDB6903F08053002BFA
:101A1C000DD1944BDB69934A43F08053D361914BC6
:101A2C00DB6903F08053BB60BB680123FB758E4BF5
:101A3C001B6803F48073002B18D18B4B1B688A4AEC
:101A4C0043F480731360FFF7CFFB386108E0FFF7B6
:101A5C00CBFB02463B69D31A642B01D90323FDE06F
:101A6C00814B1B6803F48073002BF0D07B68DB6820
:101A7C00012B06D17B4B1B6A7A4A43F0010313629C
:101A8C002DE07B68DB68002B0CD1764B1B6A754A0A
:101A9C0023F001031362734B1B6A724A23F0040395
:101AAC0013621CE07B68DB68052B0CD16D4B1B6A49
:101ABC006C4A43F0040313626A4B1B6A694A43F095
:101ACC00010313620BE0674B1B6A664A23F00103A8
:101ADC001362644B1B6A634A23F0040313627B6832
:101AEC00DB68002B15D0FFF77FFB38610AE0FFF7AE
:101AFC007BFB02463B69D31A41F28832934201D9EF
:101B0C000323ABE0574B1B6A03F00203002BEED010
:101B1C0014E0FFF769FB38610AE0FFF765FB02464A
:101B2C003B69D31A41F28832934201D9032395E0E1
:101B3C004C4B1B6A03F00203002BEED1FB7D012BF7
:101B4C0005D1484BDB69474A23F08053D3617B684E
:101B5C00DB69002B00F08180424B5B6803F00C03C7
:101B6C00082B61D07B68DB69022B46D13F4B0022EE
:101B7C001A60FFF739FB386108E0FFF735FB0246C6
:101B8C003B69D31A022B01D9032367E0354B1B6841
:101B9C0003F00073002BF0D17B681B6AB3F5803F18
:101BAC0008D1304B5B6823F400327B689B682D496D
:101BBC0013434B602B4B5B6823F474127B68196ADC
:101BCC007B685B6A0B43274913434B60274B01220D
:101BDC001A60FFF709FB386108E0FFF705FB0246C6
:101BEC003B69D31A022B01D9032337E01D4B1B6829
:101BFC0003F00073002BF0D02FE01C4B00221A6076
:101C0C00FFF7F2FA386108E0FFF7EEFA02463B699B
:101C1C00D31A022B01D9032320E0124B1B6803F0CB
:101C2C000073002BF0D118E07B68DB69012B01D12C
:101C3C00012313E00B4B5B68FB60FB6803F4803201
:101C4C007B681B6A9A4206D1FB6803F470127B68AE
:101C5C005B6A9A4201D0012300E000231846183732
:101C6C00BD4680BD00100240007000406000424242
:101C7C0080B584B000AF786039607B68002B01D1EF
:101C8C000123D0E06A4B1B6803F007033A689A42C1
:101C9C0010D9674B1B6823F0070265493B68134357
:101CAC000B60634B1B6803F007033A689A4201D040
:101CBC000123B8E07B681B6803F00203002B20D0E3
:101CCC007B681B6803F00403002B05D0594B5B6841
:101CDC00584A43F4E06353607B681B6803F00803C5
:101CEC00002B05D0534B5B68524A43F4605353604E
:101CFC00504B5B6823F0F0027B689B684D491343A3
:101D0C004B607B681B6803F00103002B40D07B68A1
:101D1C005B68012B07D1474B1B6803F40033002B86
:101D2C0015D101237FE07B685B68022B07D1414B07
:101D3C001B6803F00073002B09D1012373E03D4BAA
:101D4C001B6803F00203002B01D101236BE0394B1C
:101D5C005B6823F003027B685B68364913434B6076
:101D6C00FFF742FAF8600AE0FFF73EFA0246FB681A
:101D7C00D31A41F28832934201D9032353E02D4BFD
:101D8C005B6803F00C027B685B689B009A42EBD1AA
:101D9C00274B1B6803F007033A689A4210D2244B76
:101DAC001B6823F0070222493B6813430B60204B4E
:101DBC001B6803F007033A689A4201D0012332E012
:101DCC007B681B6803F00403002B08D0194B5B687D
:101DDC0023F4E0627B68DB68164913434B607B6835
:101DEC001B6803F00803002B09D0124B5B6823F42B
:101DFC0060527B681B69DB000E4913434B6000F09B
:101E0C0021F802460B4B5B681B0903F00F030A49D0
:101E1C00CB5C22FA03F3094A1360094B1B68184682
:101E2C00FFF7A0F9002318461037BD4680BD00BF50
:101E3C0000200240001002407827000830000020EB
:101E4C003400002080B487B000AF0023FB60002377
:101E5C00BB6000237B6100237B6000233B611E4B36
:101E6C005B68FB60FB6803F00C03042B02D0082BAF
:101E7C0003D027E0194B3B6127E0FB689B0C03F078
:101E8C000F03174AD35C7B60FB6803F48033002B91
:101E9C0010D0114B5B685B0C03F00103114AD35C4F
:101EAC00BB607B680D4A02FB03F2BB68B2FBF3F329
:101EBC007B6104E07B680C4A02FB03F37B617B696A
:101ECC003B6102E0054B3B6100BF3B6918461C3788
:101EDC00BD4680BC704700BF0010024000127A0063
:101EEC00882700089827000800093D0080B485B0B9
:101EFC0000AF78600A4B1B680A4AA2FB03235B0AFB
:101F0C007A6802FB03F3FB6000BFFB685A1EFA60A1
:101F1C00002BF9D100BF00BF1437BD4680BC704701
:101F2C0030000020D34D621080B582B000AF7860D5
:101F3C007B68002B01D1012341E07B6893F83D3095
:101F4C00DBB2002B06D17B68002283F83C2078683A
:101F5C00FFF770F87B68022283F83D207B681A68D3
:101F6C007B6804331946104600F06EFA7B68012238
:101F7C0083F846207B68012283F83E207B6801228F
:101F8C0083F83F207B68012283F840207B68012284
:101F9C0083F841207B68012283F842207B68012270
:101FAC0083F843207B68012283F844207B6801225C
:101FBC0083F845207B68012283F83D2000231846D6
:101FCC000837BD4680BD000080B485B000AF786096
:101FDC007B6893F83D30DBB2012B01D0012335E057
:101FEC007B68022283F83D207B681B68DA687B687B
:101FFC001B6842F00102DA607B681B68164A934248
:10200C0009D07B681B68B3F1804F04D07B681B68D8
:10201C00124A934211D17B681B689B6803F007033B
:10202C00FB60FB68062B10D07B681B681A687B680A
:10203C001B6842F001021A6007E07B681B681A6893
:10204C007B681B6842F001021A60002318461437A3
:10205C00BD4680BC704700BF002C0140000400400E
:10206C0080B582B000AF78607B681B681B6903F099
:10207C000203022B22D17B681B68DB6803F002038E
:10208C00022B1BD17B681B686FF002021A617B6804
:10209C0001221A777B681B689B6903F00303002BF2
:1020AC0003D0786800F0B4F905E0786800F0A7F97F
:1020BC00786800F0B6F97B6800221A777B681B6899
:1020CC001B6903F00403042B22D17B681B68DB68BB
:1020DC0003F00403042B1BD17B681B686FF0040214
:1020EC001A617B6802221A777B681B689B6903F470
:1020FC004073002B03D0786800F08AF905E078680B
:10210C0000F07DF9786800F08CF97B6800221A7772
:10211C007B681B681B6903F00803082B22D17B68C2
:10212C001B68DB6803F00803082B1BD17B681B685A
:10213C006FF008021A617B6804221A777B681B68AF
:10214C00DB6903F00303002B03D0786800F060F91F
:10215C0005E0786800F053F9786800F062F97B6864
:10216C0000221A777B681B681B6903F01003102B85
:10217C0022D17B681B68DB6803F01003102B1BD18A
:10218C007B681B686FF010021A617B6808221A7753
:10219C007B681B68DB6903F44073002B03D0786801
:1021AC0000F036F905E0786800F029F9786800F05D
:1021BC0038F97B6800221A777B681B681B6903F06F
:1021CC000103012B0ED17B681B68DB6803F0010354
:1021DC00012B07D17B681B686FF001021A617868CC
:1021EC00FEF710FE7B681B681B6903F08003802BD5
:1021FC000ED17B681B68DB6803F08003802B07D152
:10220C007B681B686FF080021A61786800F06BFACB
:10221C007B681B681B6903F04003402B0ED17B6865
:10222C001B68DB6803F04003402B07D17B681B68FD
:10223C006FF040021A61786800F0FCF87B681B684C
:10224C001B6903F02003202B0ED17B681B68DB6815
:10225C0003F02003202B07D17B681B686FF0200252
:10226C001A61786800F036FA00BF0837BD4680BDA9
:10227C0080B584B000AF786039600023FB737B6855
:10228C0093F83C30012B01D10223B4E07B6801228E
:10229C0083F83C207B68022283F83D207B681B6816
:1022AC009B68BB60BB6823F07703BB60BB6823F4FF
:1022BC007F43BB607B681B68BA689A603B681B688D
:1022CC00B3F5005F3ED0B3F5005F00F28780B3F545
:1022DC00805F00F08680B3F5805F7FD8702B1AD0BA
:1022EC00702B7BD8602B50D0602B77D8502B3CD0E8
:1022FC00502B73D8402B58D0402B6FD8302B64D038
:10230C00302B6BD8202B60D0202B67D8002B5CD0C7
:10231C00102B5AD062E07B6818683B6899683B6860
:10232C005A683B68DB6800F05EF97B681B689B6849
:10233C00BB60BB6843F07703BB607B681B68BA6803
:10234C009A604FE07B6818683B6899683B685A68EC
:10235C003B68DB6800F047F97B681B689A687B6810
:10236C001B6842F480429A603CE07B6818683B68CA
:10237C0059683B68DB681A4600F0BEF87B681B683E
:10238C005021184600F015F92CE07B6818683B6862
:10239C0059683B68DB681A4600F0DCF87B681B6800
:1023AC006021184600F005F91CE07B6818683B6852
:1023BC0059683B68DB681A4600F09EF87B681B681E
:1023CC004021184600F0F5F80CE07B681A683B6871
:1023DC001B681946104600F0ECF803E00123FB7370
:1023EC0000E000BF7B68012283F83D207B6800225F
:1023FC0083F83C20FB7B18461037BD4680BD80B46B
:10240C0083B000AF786000BF0C37BD4680BC70470E
:10241C0080B483B000AF786000BF0C37BD4680BC81
:10242C00704780B483B000AF786000BF0C37BD46F6
:10243C0080BC704780B483B000AF786000BF0C37AD
:10244C00BD4680BC7047000080B485B000AF78609A
:10245C0039607B681B68FB607B68254A934207D018
:10246C007B68B3F1804F03D07B68224A934208D13A
:10247C00FB6823F07003FB603B685B68FA681343EE
:10248C00FB607B681A4A934207D07B68B3F1804F9C
:10249C0003D07B68174A934208D1FB6823F440733E
:1024AC00FB603B68DB68FA681343FB60FB6823F056
:1024BC0080023B685B691343FB607B68FA681A60B7
:1024CC003B689A687B68DA623B681A687B689A6238
:1024DC007B68074A934203D13B681A697B681A638D
:1024EC007B6801225A6100BF1437BD4680BC70471F
:1024FC00002C01400004004080B487B000AFF860AD
:10250C00B9607A60FB681B6A7B61FB681B6A23F00D
:10251C000102FB681A62FB689B693B613B6923F013
:10252C00F0033B617B681B013A6913433B617B6998
:10253C0023F00A037B617A69BB6813437B61FB68F8
:10254C003A699A61FB687A691A6200BF1C37BD460A
:10255C0080BC704780B487B000AFF860B9607A6017
:10256C00FB681B6A7B61FB681B6A23F01002FB682B
:10257C001A62FB689B693B613B6923F470433B61C6
:10258C007B681B033A6913433B617B6923F0A0030F
:10259C007B61BB681B017A6913437B61FB683A69F9
:1025AC009A61FB687A691A6200BF1C37BD4680BC11
:1025BC00704780B485B000AF786039607B689B68E9
:1025CC00FB60FB6823F07003FB603A68FB68134305
:1025DC0043F00703FB607B68FA689A6000BF14370E
:1025EC00BD4680BC704780B487B000AFF860B9605E
:1025FC007A603B60FB689B687B617B6923F47F435B
:10260C007B613B681A027B681A43BB6813437A6987
:10261C0013437B61FB687A699A6000BF1C37BD4627
:10262C0080BC704780B485B000AF786039607B683F
:10263C0093F83C30012B01D1022341E07B6801224D
:10264C0083F83C207B68022283F83D207B681B6862
:10265C005B68FB607B681B689B68BB60FB6823F056
:10266C007003FB603B681B68FA681343FB607B6874
:10267C001B68FA685A607B681B68144A934209D03D
:10268C007B681B68B3F1804F04D07B681B68104AD1
:10269C0093420CD1BB6823F08003BB603B685B6842
:1026AC00BA681343BB607B681B68BA689A607B6826
:1026BC00012283F83D207B68002283F83C20002314
:1026CC0018461437BD4680BC704700BF002C014033
:1026DC000004004080B483B000AF786000BF0C37BA
:1026EC00BD4680BC704780B483B000AF786000BF3B
:1026FC000C37BD4680BC704770B500260C4D0D4C98
:10270C00641BA410A64209D100F022F800260A4D41
:10271C000A4C641BA410A64205D170BD55F8043BAD
:10272C0098470136EEE755F8043B98470136F2E737
:10273C009C2700089C2700089C270008A02700085D
:10274C0003460244934200D1704703F8011BF9E79A
:10275C00F8B500BFF8BC08BC9E467047F8B500BF82
:08276C00F8BC08BC9E46704752
:102774000400000000000000000000000102030447
:102784000607080902030405060708090A0B0C0DCD
:082794000E0F101001020000FD
:04279C0031010008FF
:0427A0000D0100081F
:1027A4000400000003000000020000000500000017
:1027B40007000000190000000F00000008000000DE
:1027C40032000000003F7FCCCC7F3F000A000000B5
:0C27D4000024F4001000000001000000D0
:04000005080010F9E6
:00000001FF
